:020000040800F2
:100000004029002079020008E3290008B5210008F2
:10001000E1290008C91C0008754000080000000024
:10002000000000000000000000000000FD32000899
:10003000E51E0008000000005F310008AD35000833
:10004000930200089302000893020008930200083C
:10005000930200089302000893020008930200082C
:10006000930200089302000893020008930200081C
:10007000930200089302000893020008930200080C
:1000800093020008930200089302000893020008FC
:1000900093020008930200089302000893020008EC
:1000A00093020008930200089302000893020008DC
:1000B00089360008FD3800086939000893020008F5
:1000C00093020008930200089302000893020008BC
:1000D0009302000893020008B93D0008930200084B
:1000E000930200089302000893020008930200089C
:1000F000930200089302000893020008930200088C
:10010000930200089302000893020008930200087B
:10011000930200089302000893020008930200086B
:10012000930200089302000893020008930200085B
:1001300000F002F800F090F80AA090E8000C824469
:100140008344AAF10107DA4501D100F085F8AFF246
:10015000090EBAE80F0013F0010F18BFFB1A43F0A5
:10016000010318472077000040770000103A24BFB1
:1001700078C878C1FAD8520724BF30C830C144BF0C
:1001800004680C607047000000230024002500264E
:10019000103A28BF78C1FBD8520728BF30C148BFEA
:1001A0000B6070476E2900F05C83702900F0B58405
:1001B000662905F0E581652905F0E281672905F0EA
:1001C000DF816129AFF3008003681B0A28BF41F07B
:1001D0008001692900F0C480642900F0C18075297C
:1001E00000F0BE806F2900F04384782900F08184FC
:1001F000E92900F0DD83E42900F0DA83F52900F035
:10020000D783EF2900F04084F82900F08084036848
:10021000DB0928BF41F08001632900F05E83732968
:1002200000F06383E32900F01187F32900F01687BB
:10023000002070471FB500F063FF0400002000217C
:1002400004F0B8FE401C60600020002104F09CFE19
:10025000E0601FBD10B510BD00F024FF1146FFF790
:10026000E9FF04F0F1FA00F0FDFF03B4FFF7F2FF3D
:1002700003BC04F0BCFA0000094880470948004765
:10028000FEE7FEE7FEE7FEE7FEE7FEE7FEE7FEE746
:10029000FEE7FEE704480549054A064B70470000A3
:1002A000B13500083101000840230020402900201A
:1002B0004025002040250020704700001CB50C465A
:1002C000064B7B4469460090204600F0E4FA044661
:1002D0000020694600F0F2FA20461CBDF705000038
:1002E0000FB41CB5084B06AA7B44694600900598DC
:1002F00000F0D1FA04460020694600F0DFFA2046FB
:100300001CBC5DF814FB0000D105000070B50C4664
:100310000546012A05D02878800600D5EA69002321
:1003200002E0012305E05B1C934202D2E05C00285E
:10033000F9D1A869E618C01AA861286A1844286289
:10034000284600F0FCF904E0D5E9012114F8010B7E
:100350009047B442F8D3284600F007FA70BD000079
:100360002DE9F0410646002410687529314616A58E
:1003700010D000F00BFA002802DA404213A507E083
:1003800031688A0701D512A502E0490704D511A5F5
:10039000012401E000F003FA00210A2206F12407FB
:1003A00009E0B0FBF2FCB0FBF2F302FB1C003030C2
:1003B00078541846491C0028F3D123462A46304673
:1003C000BDE8F04100F0F4B9000000002D0000008D
:1003D0002B000000200000002DE9F05F8946044654
:1003E0004FF0000ADFF874B1FB44C0F820A02046AB
:1003F000E1688847002874D0252806D0D4E9012177
:100400009047206A401C2062F1E700265F462046A4
:10041000E16888472028054607DB312D05D2781989
:1004200010F8200C08B10643F1E7B00701D526F01B
:100430000406C4F81CA00027C4F818A02A2D09D06F
:10044000284604F0CDF938B304EB8708303DC8F8EE
:10045000185019E059F8041B204604EB87029161FB
:10046000E1688847012F054618D1E069002820DAA5
:1004700026F020061DE0D8F8180000EB800005EB00
:1004800040003038C8F818002046E1688847054623
:1004900004F0A6F90028EED1012F0AD02E2D08D1A4
:1004A0002046E16888477F1C0546022F46F020065B
:1004B000C4DBA069002803DA404246F00106A061CF
:1004C000F00701D026F010066C2D0BD0682D09D056
:1004D0004C2D39D06A2D35D0742D35D07A2D33D0AE
:1004E00016E038E0E1682F4620468847B8420546C6
:1004F00009D16C2F26D04FF48060E1680643204676
:100500008847054604E06C2F1AD04FF480700643EC
:100510000DB3A5F14100192802D8203546F4006634
:100520004A462946204626604E46FFF73BFE80B1EC
:1005300001280BD0F61D26F0070000F1080956E748
:100540004020E4E78020D8E70020D6E706F1040940
:100550004DE7284652E7206ABDE8F09F8873000007
:1005600030B505460B462A4613F8014B12F8010B2D
:1005700008B1A042F8D01CB1002802D06D1CF1E7F0
:10058000284630BD40EA010310B59B070FD1042A6D
:100590000DD310C808C9121F9C42F8D020BA19BA4E
:1005A000884201D9012010BD4FF0FF3010BD1AB1B3
:1005B000D30703D0521C07E0002010BD10F8013B08
:1005C00011F8014B1B1B07D110F8013B11F8014B2F
:1005D0001B1B01D1921EF1D1184610BD10B5431C52
:1005E00002E010F8011B71B18107FAD14FF001321E
:1005F00002C88C1A8C4314EAC211F9D0C01A0A0638
:1006000003D0C01E10BDC01A10BD0A0401D0801E48
:1006100010BD0902FCD0401E10BD032A40F23080FC
:1006200010F0030C00F0158011F8013BBCF1020F33
:10063000624498BF11F801CB00F8013B38BF11F8B4
:10064000013BA2F1040298BF00F801CB38BF00F8CB
:10065000013B11F0030300F06B82083AC0F0088000
:1006600051F8043B083A51F804CBA0E80810F5E72C
:10067000121D5CBF51F8043B40F8043BAFF300800F
:10068000D20724BF11F8013B11F801CB48BF11F884
:10069000012B24BF00F8013B00F801CB48BF00F854
:1006A000012B70474FF000020429C0F0128010F0B7
:1006B000030C00F01B80CCF1040CBCF1020F18BF3E
:1006C00000F8012BA8BF20F8022BA1EB0C0100F0D1
:1006D0000DB85FEAC17C24BF00F8012B00F8012BA4
:1006E00048BF00F8012B70474FF0000200B51346D9
:1006F00094469646203922BFA0E80C50A0E80C5042
:10070000B1F12001BFF4F7AF090728BFA0E80C50F2
:1007100048BF0CC05DF804EB890028BF40F8042BEB
:1007200008BF704748BF20F8022B11F0804F18BF58
:1007300000F8012B7047704770477047704770B5DD
:10074000044685690068C10601D5302600E02026F0
:10075000C00707D070BDD4E9012130469047206A18
:10076000401C20626D1EF6D570BD70B504468569CB
:100770000078C00707D170BDD4E90121202090473F
:10078000206A401C20626D1EF6D570BD09684A05BE
:1007900001D540B27047C905FCD500B27047096861
:1007A0004A0501D5C0B27047C905FCD580B2704773
:1007B0002DE9F0470D4699469246044600F124087B
:1007C0000168880604D5E06921F01001216000E08D
:1007D0000120A84201DD471B00E00027A1697A192A
:1007E00002EB0900081AA0612078C00602D4204656
:1007F000FFF7A5FF002608E0D4E901211AF806005A
:100800009047206A401C761C20624E45F4DB20781D
:10081000C0060AD52046FFF792FF06E0D4E9012181
:1008200030209047206A401C2062381EA7F1010743
:10083000F4DC07E0D4E9012118F805009047206AAC
:10084000401C2062281EA5F10105F3DC2046FFF7BD
:100850008CFF2078000602D50220BDE8F087012039
:10086000FBE711680268006A530501D508700AE0C9
:10087000D30501D5088006E0130603D5C217C1E9E8
:10088000000200E0086001207047000001694A1C76
:1008900002610878704700B58FB0CDE901310021C1
:1008A000059105497944CDE9031011466846FFF7E3
:1008B00093FD0FB000BD0000E5FFFFFF0A6802F8DE
:1008C000010B0A60704710B5436913B1AFF30080A4
:1008D00001E0FFF71BFD012010BD127800F124019B
:1008E0000A7000224A700122EDE711684FF0FF32D2
:1008F000E9E700002DE9FF5F15468A460446DFF868
:10090000AC80F8440027D8E900103E46CDE900103D
:1009100010E03AF816106A4602A800F0A3FB411C4A
:1009200007D02178890603D5E269391891420DD89C
:100930000744761C2078800602D5E069B84205DDC0
:10094000AE42E6DB3AF816000028E2D1A069C01BEF
:10095000A0612046FFF7F3FED8E90010CDE90010B2
:10096000002017E03AF818106A4602A800F07AFB57
:10097000B0F1FF3F81460BD000250DF1080B05E0DB
:10098000D4E901211BF8050090476D1C4D45F7D3B4
:1009900008F10100B0428046E4DB206A384420625E
:1009A0002046FFF7E2FEBDE8FF9F0000826E0000D8
:1009B0002DE9F0418046D21D22F007020025D2E940
:1009C0000002F52915A614D0011E72F1000106DA05
:1009D0000023D0EB030063EB020211A608E0D8F875
:1009E00000108B0701D50FA602E0490701D50EA61E
:1009F00001251146002408F1240704E000F0CAF89C
:100A000030323A55641C50EA0102F7D12B46324687
:100A100021464046BDE8F041FFF7CABE0000000095
:100A20002D0000002B0000002000000030B4002149
:100A300000F1240408E002F00705D208303542EA4C
:100A40004372DB086554491C52EA0305F3D104687C
:100A5000002310A2250708D504F020040C4304D07D
:100A6000C46901230CA2641EC46130BCFFF7A0BEA0
:100A700010B5044621461068FFF791FE0246204655
:100A8000BDE810400023D1E7D21D22F00701D1E9D3
:100A90000023CBE70000000030000000F0B40D465A
:100AA0000188090502D5214C7C4402E01F4C7C449E
:100AB0000E34002100F1240608E002F00F071209AD
:100AC000E75D42EA03721B097754491C52EA0307A7
:100AD000F3D102780023120704D5702D06D009B196
:100AE000022311342246F0BCFFF762BE012310340A
:100AF000F8E770B504460D4621461068FFF74FFE33
:100B0000024629462046BDE870400023C6E7D21DB4
:100B100022F00703D3E90023C0E70368126843F01B
:100B2000200303600823C3610023B7E7E46C0000DF
:100B300010B5203AC0F00B80B1E81850203AA0E878
:100B40001850B1E81850A0E81850BFF4F5AF5FEAAC
:100B5000027C24BFB1E81850A0E8185044BF18C95F
:100B600018C0BDE810405FEA827C24BF51F8043B06
:100B700040F8043B08BF7047D20728BF31F8023B5A
:100B800048BF11F8012B28BF20F8023B48BF00F8EE
:100B9000012B704730B5B0F10A024FEA900E71F1A7
:100BA00000034EEA817EB0EB0E0061EB91014FEA4B
:100BB000101E4EEA017E10EB0E0041EB11114FEAC0
:100BC000102E4EEA016E10EB0E0041EB11214FEAA0
:100BD000104E4EEA014E10EB0E0041EB1141401851
:100BE00041F100014FEAD00040EA41704FEAD101E3
:100BF00010EB80054FEA810444EA907444EB010451
:100C00006D1944EB0404521BA3414FF0000348BF8D
:100C10000A3200D530BD401C41F1000130BD7047A3
:100C20002DE9FF4F0C461E464FF0FF378BB0D2E93F
:100C30000001DDF860800A908A46C1F30A5505B9C3
:100C40003D46002108464FF00000BAF1000F00F4C5
:100C5000400005DA00EB80004FF4400101EA50004B
:100C60004FEA9059B9F1010F00DDB9460A9850EAF0
:100C70004A000ED044F61050A5F2FF3545432F141C
:100C8000B8F1000F1ED07542291E1EDDC9F1000209
:100C90001CE0B8F1010F4FF0000001D0302103E05B
:100CA000F24305E02154401CB042FBDB30460022F9
:100CB000002121540B99C1F80880C1E900200FB030
:100CC000BDE8F08FBD1B6D1CDEE74A4600DA6942C5
:100CD00006A800F059FA06AB93E8070003AB83E8D7
:100CE000070050460A9900F007FB8DE80700A0F5C1
:100CF00000501F3800900398002D09DD42F21F01BB
:100D00004A46084403A90390684600F066FD08E0DF
:100D1000A0F500504A461F3803A90390684600F02A
:100D200070FD8DE807000004000C03D04FF0FF3089
:100D3000410800E01046B8F1000F03D000220092F5
:100D400015461EE0751E05D4FFF724FF30326255AC
:100D50006D1EF9D5B3460122084302D000227F1C44
:100D600004E02078302801D100227F1E002A099754
:100D700086D01DE0112D07DAFFF70CFF30326255E7
:100D80006D1C50EA0102F5D1084302D00098C8B1A9
:100D90000EE00021681E05E0235C625C635422546F
:100DA000401E491C8142F7DBAB46A81B401E099040
:100DB000002004F80B000B98099AC0F80880C0E9DD
:100DC000002B7CE711264FF0000859E72DE9F04F82
:100DD00088460446D21D22F0070191B0D1E90001F6
:100DE000CDE90A0103F0E8FC02460B98C00F01D0E0
:100DF0002D2007E02068810701D52B2002E020216B
:100E000001EAC000032A099001D0072A05DB034646
:100E10004146204600F078F90BE12078800601D5A4
:100E2000E06900E00620B8F1650F814606D0B8F110
:100E3000660F18D0B8F1670F70D131E00020B9F11A
:100E4000110F009001DB112301E009F101030AAA4F
:100E500001A90CA8FFF7E4FEDDE90C70002609F1FA
:100E60000105834647E001204B4600904FF00047C4
:100E70000AAA01A90CA8FFF7D3FEDDE90DB00C9971
:100E80005D46002610B909F101000D18B9EB050007
:100E900003D4C0F1FF3609F10105A5EB09002BE0F1
:100EA000B9F1010F01DA4FF001090020B9F1110F7A
:100EB0000090484601DD112300E003460AAA01A97B
:100EC0000CA8FFF7ADFEDDE90C704D460026834609
:100ED000207800070AD4AB4500DA5D4601A8012D51
:100EE00004DD411911F8011C302907D04F4502DA01
:100EF00017F1040F04DA012082460FE06D1EEEE7C1
:100F0000002F02DCED1B3E4403E0781CA84200DD0C
:100F10007D1CB81B00F1010A4FF000472078000744
:100F200003D4AA4501DB4FF0FF3A0021B7F1004F8F
:100F30000DF143088DF8431024D002202B23002FFD
:100F400001DA7F422D230A21021EA0F1010000DCFC
:100F50005FB197FBF1FC97FBF1F201FB1C7C17469C
:100F60000CF1300C08F801CDEEE7A8F10100037098
:100F70002188090501D5452100E06521A0F101087E
:100F800000F8011C09980FA9A1EB0807FF1D00B18B
:100F90000120411901EBEA70A1693844081A401E8A
:100FA000A0612078C00602D42046FFF7C8FB09984C
:100FB00028B1D4E901219047206A401C20622078A2
:100FC000C00622D52046FFF7BAFB1EE0002E04DB48
:100FD000B34502DD01A8805D00E03020D4E90121A5
:100FE0009047206A401C2062761CAAF101005FEA4B
:100FF000000A0AD100F084F8C0680168405CD4E9B6
:1010000001219047206A401C2062281EA5F101059D
:10101000DCDC07E0D4E9012118F8010B9047206AD5
:10102000401C2062381EA7F10107F3DC2046FFF7C1
:101030009CFB032011B043E610B5436913B1AFF335
:10104000008001E0FFF756FC012010BD128800F17E
:10105000240182840022C2840122EDE711684FF04E
:10106000FF32E9E770B516460C46054600F040F839
:10107000036893F80101012806D0FF2C0FD8185DF2
:1010800068B101202C7070BDD3F8070132462146AB
:1010900003F2071303442846BDE8704018474FF099
:1010A000FF3070BD754600F0E3F8AE4605006946B6
:1010B000534620F00700854618B020B5FFF7EAF840
:1010C000BDE820404FF000064FF000074FF0000849
:1010D0004FF0000B21F00701AC46ACE8C009ACE8CA
:1010E000C009ACE8C009ACE8C0098D4670470000F3
:1010F00010B500F005F8001D10BD00BFB93E00009E
:1011000000487047002300202DE9F0411F460446A7
:1011100003260168072A01F4006004DB08B116A564
:1011200005E016A503E008B115A500E015A521F01E
:1011300010002060A069C01EA0610FB1401EA06118
:101140002046FFF7FCFA4FB1D4E901213846904719
:10115000206A401C2062C01C206206E0206AFAE778
:10116000D4E9012115F8010B9047761EF8D22046EC
:10117000FFF7FBFABDE8F0814E414E006E616E0054
:10118000494E4600696E66002DE9F04781461646D5
:101190008AB0334878440DC88DE80D003048784453
:1011A000801C03AC0DC884E80D0041F69B30084458
:1011B000372190FBF1F290FBF1F5A5F1800501FBE1
:1011C00012041B3C02D56442012000E00020DFF83D
:1011D00090A080460027FA44AAF1BE0A0DE0E0077D
:1011E00009D03246684607EB47010AEB810100F05F
:1011F00008FB8DE8070064107F1C002CEFD1184F0E
:101200007F44AC3F18E0E80714D007EB04100DF161
:10121000180A90E80E008AE80E00C068F04201D17A
:1012200098190890324606A903A800F0EAFA03AB21
:1012300083E807006D10641C002DE4D13246694636
:10124000B8F1000F03A802D000F0C7FA01E000F0E7
:10125000D8FAC9E90001C9F808200AB0BDE8F0874A
:101260009C6600000446AFF300802046FEF7FDFFB9
:1012700000487047E02200204FF0013C50F8042B5A
:1012800051F8043B9A4221D1A2EB0C03934313EA99
:10129000CC1317D150F8042B51F8043B9A4215D1C6
:1012A000A2EB0C03934313EACC130BD150F8042B9D
:1012B00051F8043B9A4209D1A2EB0C03934313EA81
:1012C000CC13DBD04FF00000704700BFD01A01BA3A
:1012D000B1FA81F101F0180122FA01F0CB40C1F11D
:1012E0002001DBB2C0B2C01A2CFA01F3D11A91432B
:1012F00011EAC311E6D170475FEA400C08BF91F0D4
:10130000000F4FEA8C234FEAC12243EA51514FEAC2
:101310001C5018BF00F5F0404FEA300018BF41F0F4
:1013200000415FEA6C5C00F02980BCF1FF3F08BF20
:1013300040F080407047130C06BF12044FF0100CB1
:101340004FF0000C130E04BF12020CF1080C130F27
:1013500004BF12010CF1040C930F04BF92000CF1B6
:10136000020CD30F04BF52000CF1010C11464FF0D8
:101370000002A0F11F00A0EB0C00704711F0004F1D
:1013800008BF704731F000413FF4D5AF0B0C06BFEA
:1013900009044FF0100C4FF0000C0B0E04BF0902B3
:1013A0000CF1080C0B0F04BF09010CF1040C8B0F9E
:1013B00004BF89000CF1020CCB0F04BF49000CF1F3
:1013C000010CCCF12003A0EB0C0022FA03F302FA8B
:1013D0000CF241EA030100F10100704720F07F4C5C
:1013E00080EA030023F07F47ACEB070303F57C534F
:1013F00000F0004003F1FF032DE980494FEA154B4F
:1014000009B44FEA144325EA0B4E24EA03480FF2CD
:10141000042606EB132749083E785FEA320203FBF5
:101420000667C7F5000707FB06F64FEA54374FEA91
:10143000D64606F1020607FB066CCCF1005C4FEACB
:101440001C472CEA074C07FB06F40CFB06F504EBE3
:1014500015464FEA961634BF00204FF000404FEA81
:10146000D13706FB07FC4FEA1C4C0CFB0BF7D21BD9
:1014700003FB0CF761EB07010CFB0EF7B0EB074029
:1014800072EB17420CFB08F734BFA2EB0742B2EB3A
:10149000074261EB17414FEA0C444FEA910706FB04
:1014A00007FC4FEA1C4C0CFB0BF7B0EBC74072EB90
:1014B000573203FB0CF734BFA2EBC742B2EBC74273
:1014C00061EB57310CFB0EF7B0EBC70072EB5772B4
:1014D0000CFB08F734BFA2EBC702B2EBC70261EB0B
:1014E0005771039F4FEA816141EA921104EBCC04EA
:1014F0004FEAD1374FEA826206FB07FC42EA9012BC
:101500004FEA80604FEA1C4C0CFB0BF7D21B03FB2D
:101510000CF761EB07010CFB0EF7B0EB074072EB29
:1015200017420CFB08F734BFA2EB0742B2EB0742AD
:1015300061EB17414FEA8C554FEA910704EB9C246D
:1015400006FB07FC4FEA1C4C0CFB0BF7B0EBC7404B
:1015500072EB573203FB0CF734BFA2EBC742B2EB7E
:10156000C74261EB57310CFB0EF7B0EBC70072EBD3
:1015700057720CFB08F734BFA2EBC702B2EBC702ED
:1015800061EB577115EB4C254FEA816141EA9211ED
:101590004FEA82624FEAD13742EA901206FB07FC1B
:1015A00044F100044FEA80604FEA1C4C0CFB0BF73F
:1015B000D21B03FB0CF761EB07010CFB0EF7B0EB42
:1015C000074072EB17420CFB08F734BFA2EB07424F
:1015D000B2EB074261EB174115EB1C154FEA813165
:1015E00041EA92414FEA823242EA90424FEA803029
:1015F0004FEA0C7644F1000448EA03434EEA0B48F4
:101600004FF0000EB2EB080C71EB030724BF6246EB
:1016100039464EEB0E0E4FF0000B00185241494177
:101620004BEB0B0BB2EB080C71EB03077BF1000BE0
:1016300024BF624639464EEB0E0E4FF0000B0018E9
:10164000524149414BEB0B0BB2EB080C71EB03071A
:101650007BF1000B24BF624639464EEB0E0E51EA79
:10166000020718BF46F0010616EB0E7655F1000290
:1016700054F1000103D5BDE88901BDE80088BDE84B
:101680008901BDE80048B619524141EB0101A3F1BF
:101690000103704780807F7E7D7C7B7A79787776C6
:1016A00076757473727171706F6E6E6D6C6C6B6A3F
:1016B0006A696868676666656464636362616160DD
:1016C000605F5F5E5E5D5D5C5C5B5B5A5A5959585A
:1016D00058575756565555555454535352525251C4
:1016E000515050504F4F4F4E4E4D4D4D4C4C4C4B1A
:1016F0004B4B4A4A4A494949484848474747474661
:10170000464645454544444444434343434242429C
:1017100042414141002B26D4770021D01CB54FEA2D
:10172000370703B44FF010004FF010014FF00000E6
:101730000FBCBDE810400BF1010BBBF1010F08BF5E
:101740005FEA170722BF12F1010211F101014FF008
:10175000004143F1000300F0004043EA00007047FD
:10176000F9D35708DAE746EA064613F1400F4FEA85
:1017700016461FDD13F1200FDFBF16430A46002176
:1017800020335B42C8D0C3F1200746EA064602FA7E
:1017900007F74FEA164646EA0706C3F1200722FA82
:1017A00003F201FA07F721FA03F14FF0000342EACE
:1017B0000702B1E746EA020646EA06464FEA16463F
:1017C00046EA0106BCBF46EA0646360C4FF0000367
:1017D0004FF000024FF000019EE72DE9C04893460C
:1017E00030B491E8380007C831EA400C48BF34EA09
:1017F000430C03D5FFF7F2FDFFF78CFFF0BCBDE80B
:1018000000882DE9C048934630B491E8380007C8F5
:1018100010F0804F08BF13F0804F03D100F005F89F
:10182000FFF778FFF0BCBDE8008820F07F4780EA32
:10183000030023F07F4C07EB0C03A3F57C5300F06F
:101840000040A3F1FE0392F0000F00F0B38095F08A
:10185000000F00F077802DE901494FEA11404FEA6F
:10186000144621EA004800FB06FC24EA064708FB70
:1018700006F607FB08F800FB07F718EB06484CEBE9
:10188000164C4FEA124B18EB07484FEA15464CEB43
:10189000174022EA0B4E0BFB06FC25EA06470EFB1F
:1018A00006F607FB0EFE0BFB07F71EEB064E4CEB96
:1018B000164C4FF000061EEB074E4CEB174B18EB87
:1018C0000B0840F1000018EB0E0B58EB000840F13C
:1018D00000008F1A4FF000013CBFC943661B14BFC4
:1018E000B5EB040C00213CBFC943F61B4FEA17447B
:1018F0004EEA8E0E27EA04454FEA1C4704FB0762B6
:101900002CEA074C05FB07F70CFB05F604FB0CFC67
:1019100016EB074642EB174216EB0C4642EB1C4215
:101920001BEB060658EB0202414146EA9E0601D532
:10193000BDE80189B619524141EB0101A3F1010350
:10194000BDE801894FEA14454FEA114724EA0546EC
:1019500021EA074C05FB07F406FB07F70CFB06F131
:1019600005FB0CFC11EB074144EB17444FEA12470F
:1019700011EB0C4144EB1C4422EA074C05FB07F237
:1019800006FB07F70CFB06F605FB0CFC16EB0746FF
:1019900042EB174216EB0C4642EB1C456A1854F119
:1019A000000148BF7047B619524141EB0101A3F154
:1019B0000103704795F0000F37D04FEA11424FEA0C
:1019C000144721EA024624EA074C02FB07F106FB12
:1019D00007F70CFB06F402FB0CFC14EB074441EB8D
:1019E00017414FEA154714EB0C4441EB1C4125EA23
:1019F000074C02FB07F506FB07F70CFB06F602FB9C
:101A00000CFC16EB074645EB174516EB0C4645EB71
:101A10001C42121951F1000148BF7047B6195241DA
:101A200041EB0101A3F1010370474FEA14454FEA6E
:101A3000114724EA054621EA074C05FB07F106FB9E
:101A400007F70CFB06F24FF0000605FB0CFC12EB4F
:101A5000074241EB174112EB0C4251EB1C4148BFCE
:101A60007047921841EB0101A3F10103704721B1C6
:101A7000826842F00102826003E0826822F0010283
:101A800082607047014600208A6802F004020AB1B1
:101A9000012000E0002070470146C86C80B270470A
:101AA0000246002013680B400BB1012000E000202B
:101AB0007047014600208A6802F008020AB101203E
:101AC00000E000207047000030B5024600200023EF
:101AD00050680F4C20400D790C6844EA05242043DF
:101AE000506090680B4C2040D1E902542C434D7952
:101AF00044EA450420439060D06A20F470000C7CD6
:101B0000641EE4B2234340EA0350D06230BD0000BB
:101B1000FFFEF0FFFDF7F1FFF0B504460D46002093
:101B20000021092D11DDE068A5F10A0606EB460744
:101B3000072606FA07F18843A5F10A0606EB4606D2
:101B400003FA06F10843E0600CE0206905EB450765
:101B5000072606FA07F1884305EB450603FA06F166
:101B600008432061072A0FDA606B561E06EB8607D2
:101B70001F2606FA07F18843561E06EB860605FA6D
:101B800006F10843606322E00D2A0FDA206BD61FAE
:101B900006EB86071F2606FA07F18843D61F06EBD9
:101BA000860605FA06F10843206310E0E06AA2F118
:101BB0000D0606EB86071F2606FA07F18843A2F1F9
:101BC0000D0606EB860605FA06F10843E062F0BD55
:101BD000816841F008018160704721B1826842F458
:101BE000A002826003E0826822F4A0028260704753
:101BF000816841F004018160704700002DE9F05FC9
:101C00004FF0000AD34600F07BFA8246504603F0BC
:101C1000BCFA80460022074B03F0CAFA06460022AF
:101C2000054B03F0DDF9044603F082FA034908800E
:101C3000BDE8F09F005CF23F00C0724074000020DD
:101C400000B587B001214FF4017001F0B5FA4FF4EF
:101C5000004001F085FA0220ADF8180000208DF850
:101C60001B0006A9164800F0ADF9002001908DF880
:101C700009008DF808004FF46020039000200490C4
:101C800001208DF8140001A90E48FFF71DFF012166
:101C90000C48FFF7ECFE0B48FFF79AFF00BF09481E
:101CA000FFF707FF0028FAD10648FFF7A1FF00BFA2
:101CB0000448FFF7E7FE0028FAD107B000BD000096
:101CC00000080140002401407047000070B505463F
:101CD0000C462246294615480068801CFEF79DFCEC
:101CE0002046E11704EB1161090A104A12681170CD
:101CF000E11704EB11610912A4EB01210B4A1268F0
:101D00005170002109480268A01C1154074800685E
:101D100000F596700549086008460068044909689E
:101D2000884202D103480149086070BD4800002084
:101D3000500000205815002010B5002400F028F8AD
:101D400004E0601CC4B2012000F0F4F820210F4828
:101D500000F0C3F9012801D1642CF2DB642C01DB13
:101D6000012010BD002404E0601CC4B2012000F07A
:101D7000E1F82021054800F0B0F908B9642CF3DB44
:101D8000642C01DB0120ECE70020EAE700080140B9
:101D900008B50121042001F00FFA0121084601F0E5
:101DA0000BFA2020ADF8000004208DF803006946EE
:101DB000014800F007F908BD0008014008B52020DF
:101DC000ADF8000003208DF8020010208DF803000C
:101DD0006946024800F0F6F808BD0000000801401E
:101DE00010B500F06BF8FFF7A7FF10BD10B5002489
:101DF00004E0601CC4B2012000F09CF820211048CF
:101E000000F06BF9012801D1642CF2DB002404E01E
:101E1000601CC4B2012000F08DF82021084800F0B9
:101E20005CF908B9642CF3DB282000F083F820214A
:101E3000034800F052F9012800D110BD0020FCE752
:101E40000008014070B50024002506E06006040E7D
:101E5000FFF7CCFF0443681CC5B2082DF6DB204613
:101E600070BD7CB505460E4600F028F8FFF764FF0C
:101E7000F8B9002405E0FFF7E5FF0DF80400601C49
:101E8000C4B2052CF7DB9DF800009DF80110084452
:101E90009DF8021008449DF8031008449DF80410B2
:101EA000884208D19DF8000030709DF8020028702B
:101EB00001E001207CBD0020FCE7000010B5FFF729
:101EC0007DFF2021064800F011F9142000F00CF8E5
:101ED0002021034800F00CF91E2000F02BF810BD63
:101EE00000080140704700000146114A12884A4329
:101EF0004FF0E0235A6100229A611A46126942F0BB
:101F000001021A6100BF4FF0E022106900F00102E7
:101F10001AB100F48032002AF5D04FF0E0221269A5
:101F200022F001024FF0E0231A6100229A6170470B
:101F3000220000200146114A12784A434FF0E02364
:101F40005A6100229A611A46126942F001021A612E
:101F500000BF4FF0E022106900F001021AB100F456
:101F60008032002AF5D04FF0E022126922F00102FF
:101F70004FF0E0231A6100229A6170472000002090
:101F800010B56FF0040001F0FDFA0A4800680A4934
:101F9000B0FBF1F0094908700846007800EB4001F9
:101FA000C1EBC0104FF6FF7101EAC0000449088080
:101FB00010BD00007800002000127A0020000020F0
:101FC000220000202DE9F0410246002500260020D5
:101FD00000230024002791F803C00CF00F0591F8AE
:101FE00003C00CF0100CBCF1000F03D091F802C03C
:101FF0004CEA050591F800C0BCF1000F31D014681F
:1020000000202BE04FF0010C0CFA00F3B1F800C0F7
:102010000CEA03069E4220D183004FF00F0C0CFA0D
:1020200003F7BC4305FA03FC4CEA040491F803C02F
:10203000BCF1280F06D14FF0010C0CFA00FCC2F8DD
:1020400014C00AE091F803C0BCF1480F05D14FF06D
:10205000010C0CFA00FCC2F810C0401C0828D1D3B7
:102060001460B1F800C0BCF1FF0F34DD54680020EB
:102070002EE000F1080C4FF0010808FA0CF3B1F85B
:1020800000C00CEA03069E4221D183004FF00F0CE2
:102090000CFA03F7BC4305FA03FC4CEA040491F87C
:1020A00003C0BCF1280F05D100F1080C08FA0CF8A8
:1020B000C2F8148091F803C0BCF1480F07D100F1B9
:1020C000080C4FF0010808FA0CF8C2F81080401C08
:1020D0000828CED35460BDE8F08102460020936802
:1020E0000B400BB1012000E00020704741617047B8
:1020F000016170470AB1016100E041617047000071
:1021000070B586B0142101A8FEF7EEFA002507236A
:10211000012202212648FFF7FFFC002412E00121E2
:102120002348FFF75AFD00BF02212148FFF7B8FC02
:102130000128F9D11E48FFF7AFFC01A921F81400CE
:10214000601CC4B20A2CEADB00241BE0601CC6B28F
:1021500014E001A830F8140001A931F816108842E3
:102160000ADD01A830F8145030F8160001A921F852
:10217000140001A820F81650701CC6B20A2EE8DB25
:10218000601CC4B2092CE1DB0025012406E001A893
:1021900030F81400284485B2601CC4B2092CF6DB68
:1021A0002946E81705EB5070C0F3CF0006B070BDAC
:1021B000002401407047000010B54FF400710C4836
:1021C000FFF796FF4FF480710948FFF791FF00F089
:1021D00041F84FF400710648FFF788FF00F03AF825
:1021E0004FF480710248FFF781FF00F033F810BD13
:1021F000000C014010B54FF400710848FFF776FF5E
:102200004FF480710548FFF773FF00F023F84FF497
:1022100000710248FFF76CFF10BD0000000C014088
:1022200010B54FF400710A48FFF762FF00F012F892
:102230004FF480710648FFF75BFF00F00BF84FF496
:1022400080710348FFF752FF00F004F810BD000052
:10225000000C0140032000BF0100A0F10102D0B238
:10226000FAD1704710B580212448FEF71BFA24A24A
:1022700024A12248FEF734F82048FEF7AFF922499E
:10228000086080212148FEF70DFA21A21DA11F48F8
:10229000FEF726F81D48FEF7A1F9204908608021C5
:1022A0001F48FEF7FFF91FA216A11D48FEF718F8F8
:1022B0001B48FEF793F91D49086080211C48FEF772
:1022C000F1F91CA20FA11A48FEF70AF840F25B7060
:1022D0001C4908600846164902681BA002F0D8FD98
:1022E00006491EA002F0D4FD084920A002F0D0FD4E
:1022F0000B4922A002F0CCFD10BD0000341B0020D1
:102300007A7764002573000054000020B41B00207D
:10231000443462754359685A3670000058000020F2
:10232000341C002035323038383800005C00002082
:10233000B41C002062726F6B65722E656D71782E11
:10234000696F000060000020B7FE20CEF120C6F7C4
:10235000A3BA25733A25640D0A000000BFCDBBA7C0
:10236000B6CB4944A3BA25730D0A0000D3C320BBE2
:10237000A720C3FBA3BA25730D0A0000C3DC2020ED
:102380002020C2EBA3BA25730D0A000008B5012175
:10239000042000F011FF0120ADF8000003208DF8AB
:1023A000020010208DF8030069460448FFF70AFE7A
:1023B00001210248FFF79CFE08BD00000008014013
:1023C00010B501210148FFF793FE10BD0008014040
:1023D00010B501210148FFF789FE10BD000801403A
:1023E00000B587B001214FF4017000F0E5FE4020F8
:1023F000ADF8180000208DF81B0003208DF81A009E
:1024000006A91948FFF7DEFD002001908DF80800AD
:102410008DF809004FF46020039000200490012003
:102420008DF8140001A91148FFF74EFB0723012284
:1024300002210E48FFF770FB01210C48FFF717FB44
:102440000A48FFF7C5FB00BF0848FFF732FB00282A
:10245000FAD10648FFF7CCFB00BF0448FFF712FB98
:102460000028FAD107B000BD000801400024014057
:1024700010B51648164908600846006815490860F6
:10248000154816490860164816490860084600684D
:10249000154908601548164908601648164908602D
:1024A000084600681549086015481649086000F09C
:1024B00037F8002114A000F047FA002015490870F1
:1024C000154908701549087010BD0000A0090020CA
:1024D0003000002034000020500E00203800002082
:1024E0007C0F00203C000020400000202C14002025
:1024F0004400002058150020480000204C00002017
:10250000081A002050000020746F7069635F6F6EBE
:1025100065000000730000207200002070000020A1
:1025200070B501207A4908600A207A4908607A4823
:102530000068001D794909680844801C78490968C9
:1025400008447849086073480068096844181020F6
:102550007549087000BF2046E11704EB5161C911AD
:10256000A4EBC115E11704EB5161CC11002C01DD86
:1025700045F080056C48664A1268855464480068D6
:10258000401C63490860002CE5DC0021664A604875
:102590000068115404215E480068401C11544D210C
:1025A0005B480068801C1154512159480068C01CC8
:1025B0001154542156480068001D115454480068B5
:1025C000401D1154042152480068801D1154C2213D
:1025D0004F480068C01D115400214D480068083064
:1025E000115464214A480068093011544A49086866
:1025F000C11700EB1161C1F307224B4B4449096835
:102600000A315A5444490868C11700EB1161091294
:10261000A0EB0121CAB23E4909680B315A541A464F
:102620003B4909680C3150183B490A683F49FDF79E
:10263000F4FF3A490868C11700EB1161C1F30722A2
:10264000334909680C31344B1B681944364B5A54D2
:1026500032490868C11700EB11610912A0EB012192
:10266000CAB22B4909680D312B4B1B6819442E4BFC
:102670005A54274909680E31274A126811441A46EC
:10268000881826490A682A49FDF7C7FF24490868BF
:10269000C11700EB1161C1F307221D4909680E3112
:1026A0001D4B1B6819441D4B1B6819441E4B5A5483
:1026B0001B490868C11700EB11610912A0EB012149
:1026C000CAB2134909680F31134B1B681944134BE5
:1026D0001B681944144B5A540D49096810310E4AAD
:1026E000126811440D4A126811441A4688180C49A0
:1026F0000A681049FDF791FF05480068054A12680D
:102700001044084A12688118074801F023FB70BD85
:1027100064000020680000205400002058000020C1
:102720005C0000206C000020341D0020341B0020C1
:10273000B41B0020341C00202DE9F04FD1B080469E
:1027400098F8011098F8000001EB0020509008F173
:1027500002070020814605460646834601244FF0C5
:10276000010A00BF0BF1010B00BF281917F80090F8
:1027700009F07F0000FB0A664FEACA1A641C09F0E0
:1027800080000028F1D13019054431195098401AC1
:1027900050900124A246002650980028E2D15946C4
:1027A00020A002F075FB00200546064600BF00BFD2
:1027B0004C9030E000BF281917F8009009F07F0016
:1027C00000FB0A664FEACA1A641C09F08000002860
:1027D000F1D1601C2844395C6019385C01EB0020A1
:1027E000801C4F904F98301A4E9029194F980844EA
:1027F0004D904D98391801A84E9AFDF70EFF01A88B
:102800004E99FFF763FA301905440124A2460026C9
:102810004C98401C4C904C985845CBDB51B0BDE8CF
:10282000F08F0000B1BEB4CEBDD3CAD5C1CB2564F4
:10283000B8F6CDC6CBCDCAFDBEDD0D0A0000000046
:1028400010B5C020044908700020487002210248D9
:1028500001F080FA10BD0000341D00202DE9F04782
:102860000546884616460120334908602846FDF78C
:10287000B5FE801C31490860314806600846006892
:102880002F490968441830202E49087000BF20469F
:10289000E11704EB5161C911A4EBC117E11704EB77
:1028A0005161CC11002C01DD47F080072548224AF8
:1028B0001268875420480068401C1F490860002C9B
:1028C000E5DC2846FDF78AFEC0F307211D4A1A48B9
:1028D000006811542846FDF781FEC1B2194A164816
:1028E0000068401C11542846FDF778FE8146154AC1
:1028F00011490968891C50184A462946FDF78DFE82
:102900002846FDF76BFE0C490968891C08440D49EF
:1029100000EB0109324641464846FDF77EFE064877
:102920000068064A12681044054A12688118054872
:1029300001F010FABDE8F087640000206800002074
:102940006C000020341D002070B504460D460220A6
:102950001F4908601F4908602046FDF73FFEC01C64
:102960001D49086082201D4908701A4800781A49DC
:102970000978084419494870002088700120C870FF
:102980002046FDF72BFE000A144908712046FDF78A
:1029900025FE124948712046FDF720FE06463246C4
:1029A00021460E48801DFDF738FE2046FDF716FE35
:1029B000801D0A490D5406480068064A12681044F2
:1029C000054A12688118054801F0C4F970BD00007D
:1029D00064000020680000206C000020341D0020EE
:1029E0007047704770B5002100230F22C47804B3EC
:1029F000154C246804F4E064C4F5E064210AC1F1D4
:102A00000403CA40447804FA03F184781440214353
:102A100009010E4C0678A155047804F01F05012425
:102A2000AC4005786D11AD0005F1E025C5F8004119
:102A300009E0047804F01F050124AC40044D067839
:102A4000761145F8264070BD0CED00E000E400E092
:102A500080E100E002490143024A11607047000032
:102A60000000FA050CED00E008B5012010230A2251
:102A700000210090084600F069FA012010230B2283
:102A800000210090122000F061FA012010230C2296
:102A900000210090242000F059FA012010230D227B
:102AA00000210090362000F051FA012010230E2260
:102AB00000210090482000F049FA012010230F2245
:102AC000002100905A2000F041FA012010231A46FC
:102AD000002100906C2000F039FA08BD08B50120F3
:102AE0001023002211460090104600F02FFA01201A
:102AF0001023024600210090122000F027FA012046
:102B0000102323A200210090242000F0E7FA0120E6
:102B10001023022219460090002000F017FA01202D
:102B20001023024619460090122000F00FFA0120EF
:102B3000102317A219460090242000F0CFFA01209C
:102B40001023112222210090002000F0FFF9012023
:102B50001023122222210090104600F0F7F90120E4
:102B60001023132222210090242000F0EFF90120ED
:102B70001023142222210090362000F0E7F90120D2
:102B8000102303A222210090482000F0A7FA08BDDC
:102B90003A00000070B500240CE0002506E000209B
:102BA000074901EBC5010855681CC5B2802DF6DB4D
:102BB000601CC4B2082CF0DB00F0F6F870BD000019
:102BC000601E002010B504461CB90021A62000F0AC
:102BD000AAFA012C03D10021A72000F0A4FA10BD0D
:102BE00010B504463CB90021C82000F09CFA002131
:102BF000A12000F098FA012C07D10021C02000F09C
:102C000092FA0021A02000F08EFA10BDF0B5144613
:102C10000B46CF1701EB5777C7F3C702CF1701EB6E
:102C20005777FF10A1EBC707FEB20123B340DDB217
:102C30004CB1134B03EBC0039B5C2B43104F07EBD2
:102C4000C007BB541AE00E4B03EBC0039B5CDB4395
:102C50000B4F07EBC007BB54094B03EBC0039B5C56
:102C60002B43074F07EBC007BB54054B03EBC003D7
:102C70009B5CDB43024F07EBC007BB54F0BD000079
:102C8000601E002008B50121082000F095FA4FF4DD
:102C90004070ADF8000014208DF8030003208DF87B
:102CA000020069463948FFF78DF94FF44071374803
:102CB000FFF71EFA0021AE2000F035FA0021084689
:102CC00000F031FA0021102000F02DFA0021402000
:102CD00000F029FA0021812000F025FA0021CF2000
:102CE00000F021FA0021A12000F01DFA0021C820E7
:102CF00000F019FA0021A62000F015FA0021A82002
:102D000000F011FA00213F2000F00DFA0021D3203D
:102D100000F009FA0021084600F005FA0021D5204C
:102D200000F001FA0021802000F0FDF90021D920F7
:102D300000F0F9F90021F12000F0F5F90021DA2086
:102D400000F0F1F90021122000F0EDF90021DB2064
:102D500000F0E9F90021302000F0E5F90021202001
:102D600000F0E1F90021022000F0DDF900218D20C2
:102D700000F0D9F90021142000F0D5F9FFF70AFF7F
:102D80000021AF2000F0CFF908BD0000000C014089
:102D900010B50246012000E050430B00A1F10104F0
:102DA000E1B2F9D110BD000070B500242BE004F1B0
:102DB000B001C8B2002100F0B6F90021084600F0C9
:102DC000B2F90021102000F0AEF9FFF7F5F97820F4
:102DD00000F096FAFFF724FA402000F091FAFFF78E
:102DE0001FFA002509E0094901EBC501085D00F063
:102DF00087FAFFF715FA681CC5B2802DF3DBFFF7E1
:102E0000F9F9601CC4B2082CD1DB70BD601E002033
:102E10002DE9FE4F0746884692461C460197CDF89D
:102E20000080082C02D14FF006091FE02046E3176E
:102E300004EB5373DB1021464FEAE47C04EB5C7C2B
:102E40004FEAEC0CA4EBCC0CBCF1000F02D04FF01D
:102E5000010C01E04FF0000C6344224604EBD27CED
:102E60004FEA6C0C03FB0CF303F0FF09AAF12000FE
:102E7000C6B200255EE0082C07D106EB46002F49BC
:102E800001EB400010F805B01DE00C2C07D106EB5B
:102E900046002B4901EB800010F805B013E0102C20
:102EA00005D1284800EB061010F805B00BE0182CEF
:102EB00007D106EBC600244901EB800010F805B0ED
:102EC00001E0BDE8FE8F002002901CE00BF0010045
:102ED00028B1414638460C9AFFF798FE09E00C9855
:102EE00008B9012000E00020024641463846FFF7BD
:102EF0008DFE4FEA6B0B08F1010000F0FF0802980D
:102F0000401CC0B2029002980828DFDB781CC7B2D0
:102F1000082C0BD004EBD4714A100199791A8A421B
:102F200004D1019F00980830C0B20090DDF8008005
:102F3000681CC5B24D459EDB00BFC2E78455000842
:102F4000AC570008205C0008106200082DE9FC4F17
:102F50000746884616461C46BB46CDF804802046E8
:102F6000E21704EB5272D2102146E31704EB5373BD
:102F7000DB10A4EBC3030BB1012300E000231A44D0
:102F8000624392B20092002555E0102C05D12C48E6
:102F900000EB861010F805A01BE0182C07D106EBFB
:102FA000C600284901EBC00010F805A011E0202C54
:102FB00005D1254800EBC61010F805A009E0402C0B
:102FC00005D1224800EB462010F805A001E0BDE83D
:102FD000FC8F4FF000091CE00AF0010028B14146C7
:102FE00038460B9AFFF712FE09E00B9808B901204A
:102FF00000E00020024641463846FFF707FE4FEA50
:103000006A0A08F1010000F0FF0809F1010000F070
:10301000FF09B9F1080FDFDB781CC7B2A7EB0B0083
:10302000A04204D15F4601980830C0B20190DDF89B
:103030000480681C85B200988542A6DB00BFC6E705
:103040006C6F0008AC740008F47400087475000814
:103050002DE9FF4F82B0064691461F46DDE90F4A33
:103060004FF0000B082C01D14FF0020B002530E08F
:10307000781B401EC1B20A20FFF78AFEB9FBF0F0B0
:103080000A21B0FBF1F201FB1208B8F1000F0ED1DA
:1030900004EBD4710BEB610101FB0561C8B223465F
:1030A0003022CDE900A40399FFF7B2FE0FE004EB54
:1030B000D4710BEB610101FB0561C8B208F130016D
:1030C000CAB22346CDE900A40399FFF7A1FE681C0C
:1030D000C5B2BD42CCDB06B0BDE8F08F2DE9F841AA
:1030E00006460F4614461D46DDF81C8013E0CDF859
:1030F000008022782B4639463046FFF789FE082D9E
:1031000002D1B01DC6B205E0284605EBD07106EB32
:103110006101CEB2641C2078202802DB20787E2852
:10312000E5DDBDE8F88170B505460C46FFF744F8CB
:10313000782000F0E5F8FFF773F81CB1402000F0AC
:10314000DFF802E0002000F0DBF8FFF769F828461E
:1031500000F0D6F8FFF764F8FFF74CF870BD704741
:1031600001460020034A506820F440400843506064
:10317000704700000010024029B1064AD26902439C
:10318000044BDA6104E0034AD2698243014BDA61FD
:10319000704700000010024029B1064A126902433C
:1031A000044B1A6104E0034A12698243014B1A611D
:1031B000704700000010024029B1064A926902439C
:1031C000044B9A6104E0034A92698243014B9A617D
:1031D000704700000010024029B1064AD26802433D
:1031E000044BDA6004E0034AD2688243014BDA60A0
:1031F000704700000010024030B50021002200247A
:1032000000232D4D6D6805F00C0121B1042905D076
:10321000082923D105E0294D056022E0274D0560EE
:103220001FE0254D6D6805F47012234D6D6805F49F
:103230008034022505EB92421CB9214D55430560AF
:103240000BE01D4D6D6805F400351DB11C4D554357
:10325000056002E0194D5543056002E0174D056019
:1032600000BF00BF144D6D6805F0F0010909154D50
:103270006B5C0568DD4045600F4D6D6805F4E061ED
:10328000090A104D6B5C4568DD4085600A4D6D682C
:1032900005F46051C90A0B4D6B5C4568DD40C560A3
:1032A000054D6D6805F44041890B074D6B5CC568A1
:1032B000B5FBF3F5056130BD0010024000127A0045
:1032C00000093D008C0000209C00002010B54FF448
:1032D00000610348FEF701FF0446204610BD0000D0
:1032E0000008014010B54FF480710348FEF7F5FE69
:1032F0000446204610BD0000000801407047000051
:1033000070B5044600251FE004F0800028B14FF49A
:1033100000710F48FEF7ECFE04E04FF400710C481A
:10332000FEF7E4FEFEF796FF4FF480710848FEF7C3
:10333000DFFEFEF78FFF4FF480710548FEF7D6FEE3
:103340006006040E681CC5B2082DDDDB70BD0000F0
:10335000000C014010B5AAB034211CA8FDF7C4F937
:10336000642103A8FDF7C0F90020299016A11CA82C
:10337000FCF7B6FF03208DF8A40000208DF8A5000F
:103380001CA8FDF72BF9C0B28DF8A6001CA99DF86A
:10339000A600CDE900019DF8A5309DF8A4200EA15E
:1033A00003A8FCF79DFF1CA8FDF718F9C41C0DF13C
:1033B0000F010CA001F06CFD224603A90BA0FFF742
:1033C0004DFA2AB010BD000046697265206465742C
:1033D00065637465640000002563256325632573B8
:1033E0000000000025730D0A00000000746F706972
:1033F000635F6F6E6500000010B5AAB034211CA891
:10340000FDF772F9642103A8FDF76EF900202990F9
:1034100016A11CA8FCF764FF03208DF8A40000206F
:103420008DF8A5001CA8FDF7D9F8C0B28DF8A6004C
:103430001CA99DF8A600CDE900019DF8A5309DF8D6
:10344000A4200EA103A8FCF74BFF1CA8FDF7C6F8AB
:10345000C41C0DF10F010CA001F01AFD224603A9B6
:103460000BA0FFF7FBF92AB010BD000047617320E5
:1034700064657465637465640000000025632563FA
:10348000256325730000000025730D0A000000006D
:10349000746F7069635F6F6E6500000010B500F0B7
:1034A00001F810BD0CB50020019000903348006871
:1034B00040F480303149086000BF3048006800F4B3
:1034C000003000900198401C0190009818B90198B4
:1034D000B0F5A06FF1D12948006800F4003010B1B8
:1034E0000120009001E0002000900098012843D1C5
:1034F0002348006840F01000214908600846006831
:1035000020F0030008600846006840F002000860F0
:103510001A484068194948600846406848600846AB
:10352000406840F4806048600846406820F47C10A1
:1035300048600846406840F4E81048600846006863
:1035400040F08070086000BF0C48006800F0007018
:103550000028F9D00948406820F003000749486076
:103560000846406840F00200486000BF03484068D9
:1035700000F00C000828F9D10CBD0000001002403A
:1035800000200240042808D14FF0E021096941F0F1
:1035900004014FF0E022116107E04FF0E0210969DA
:1035A00021F004014FF0E0221161704770470000E4
:1035B00010B51348006840F0010011490860084642
:1035C0004068104908400E494860084600680E49A6
:1035D00008400B4908600846006820F48020086015
:1035E0000846406820F4FE0048604FF41F008860E1
:1035F000FFF754FF4FF000600449086010BD000061
:10360000001002400000FFF8FFFFF6FE08ED00E0AA
:103610001FB54FF4A060FFF71DFA01210846FFF720
:10362000ABFD4FF0804000F033FA42F20F70ADF87E
:10363000080048F69F40ADF804000020ADF80600F1
:10364000ADF80A0001A94FF0804000F031FB0121E4
:10365000880700F00DFA01221146900700F01DFBCB
:103660000121880700F007FA1C208DF800000220D5
:103670008DF8010001208DF802008DF803006846E6
:10368000FFF7B0F91FBD000030B5ABB00024142126
:103690000A20FEF7B3FA0121880700F0EDFA0028AE
:1036A0007ED02AA929A8FEF7DCFBFFF773FAFFF703
:1036B00015FA012010210223CDE900109DF8A42065
:1036C00000213220FFF7C4FC012010210223CDE9A4
:1036D00000109DF8A8203220FFF7BAFC354800887A
:1036E000642190FBF1F50120102102232A46CDE947
:1036F000001022215020FFF7ABFC012010232EA246
:10370000194600904420FFF7E9FC012010232BA26A
:10371000222100906420FFF7E1FCFFF745FB3421F4
:103720001BA8FCF7E1FF642102A8FCF7DDFF0020E5
:10373000289020480088642190FBF1F59DF8A800AE
:1037400000909DF8A4302A461DA11BA8FCF7C8FDD7
:1037500003208DF8A00000208DF8A1001BA8FCF725
:103760003DFFC0B28DF8A2001BA99DF8A200CDE9D3
:1037700000019DF8A1309DF8A0201BA102A8FCF734
:10378000AFFD1CA001F084FB0DF10B011AA001F0AC
:103790007FFB1BA8FCF722FFC41C224602A900E005
:1037A00006E017A0FFF75AF80121880700F060F93A
:1037B0002BB030BD740000202500000070706D003B
:1037C0007B22736D6F6B65223A222564222C227452
:1037D000656D70223A222564222C2268756D69225B
:1037E0003A222564227D0000256325632563257325
:1037F000000000000D0A000025730D0A0000000003
:10380000746F7069635F74776F0000001FB54FF4C9
:10381000A060FFF71FF901210220FFF7ADFC184857
:1038200000F036F944F61F60ADF8080041F61F407D
:10383000ADF804000020ADF80600ADF80A0001A9BB
:103840000F4800F035FA01210D4800F011F901226E
:1038500011460B4800F021FA0121094800F00BF94C
:103860001D208DF8000001208DF8010000208DF84A
:10387000020001208DF803006846FFF7B3F81FBD72
:10388000000400401FB54FF4A060FFF7E3F80121EA
:103890000220FFF771FC184800F0FAF84EF65F209E
:1038A000ADF8080048F69F40ADF804000020ADF8E0
:1038B0000600ADF80A0001A90F4800F0F9F901214E
:1038C0000D4800F0D5F8012211460B4800F0E5F94B
:1038D0000121094800F0CFF81D208DF800000220DA
:1038E0008DF8010001208DF802008DF80300684674
:1038F000FFF778F81FBD00000004004010B501215B
:10390000164800F0B9F938B315480078062819D2DE
:10391000DFE800F003060B0C0D10FEF791FF11E03D
:10392000FFF774FFFEF78CFF0CE000BF00BFFEF74F
:1039300087FF07E000200B4908700021074800F0CE
:103940009AF800BF00BF06480078401C0449087080
:103950000121024800F08CF810BD00000004004076
:10396000700000207100002010B501211D4800F0FA
:1039700083F9002834D01C481C4902681C480068A0
:10398000801CFCF74AFE18480088000A184909689C
:10399000087015480078164909684870144800688E
:1039A00000F59670124908600846006811490968D8
:1039B000884202D110480E49086000200A49086078
:1039C00000210E4800F072F90021064800F053F87B
:1039D0000021044800F06AF90121024800F048F88B
:1039E00010BD00000008004028000020A0010020B9
:1039F0003000002038000020A00900200004004012
:103A00007FB505460C464FF4A060FFF723F801216F
:103A10000420FFF7B1FBADF80850ADF804400020DA
:103A2000ADF80600ADF80A0001A9104800F040F911
:103A300001210E4800F01CF8012211460B4800F04D
:103A40002CF90021094800F016F81E208DF800001E
:103A500001208DF8010000208DF8020001208DF872
:103A600003006846FEF7BEFF7FBD0000000800406F
:103A7000CA430282704721B1028842F001020280EB
:103A800004E002884FF6FE731A400280704700007F
:103A900010B504466848844208D10121C014FFF7DC
:103AA0009BFB0021E014FFF797FBC4E0B4F1804FCB
:103AB00008D101210846FFF76FFB00210120FFF725
:103AC0006BFBB8E05D48844208D101210220FFF77A
:103AD00063FB00210220FFF75FFBACE05848844203
:103AE00008D101210420FFF757FB00210420FFF734
:103AF00053FBA0E05348844208D101210820FFF77E
:103B00004BFB00210820FFF747FB94E04E4884421E
:103B100008D101211020FFF73FFB00211020FFF703
:103B20003BFB88E04948844208D101212020FFF76F
:103B300033FB00212020FFF72FFB7CE04448844228
:103B400008D101214014FFF747FB00216014FFF763
:103B500043FB70E03F48844209D10121C804FFF7CC
:103B60003BFB00214FF40020FFF736FB63E03A48AF
:103B7000844209D101210805FFF72EFB00214FF4F3
:103B80008010FFF729FB56E03448844209D1012117
:103B90004805FFF721FB00214FF40010FFF71CFB45
:103BA00049E02F48844208D101214020FFF7F4FA70
:103BB00000214020FFF7F0FA3DE02A48844208D176
:103BC00001218020FFF7E8FA00218020FFF7E4FAC6
:103BD00031E02548844208D101218015FFF7DCFA45
:103BE0000021A015FFF7D8FA25E02048844209D12A
:103BF00001210804FFF7F0FA00214FF48030FFF7AD
:103C0000EBFA18E01A48844209D101214804FFF771
:103C1000E3FA00214FF40030FFF7DEFA0BE015481D
:103C2000844208D101218804FFF7D6FA00214FF41D
:103C30008020FFF7D1FA10BD002C014000040040A5
:103C400000080040000C004000100040001400403C
:103C500000340140004C014000500140005401403C
:103C600000180040001C00400020004000400140BF
:103C7000004401400048014030B5024600200023C6
:103C80000024158A05EA0103958905EA010413B1A8
:103C90000CB1012000E0002030BD1AB183890B4334
:103CA000838102E083898B438381704781847047DD
:103CB000002202881D4B98420ED01D4B98420BD01B
:103CC000B0F1804F08D01B4B984205D01A4B984258
:103CD00002D01A4B984204D14FF68F731A404B888A
:103CE0001A43174B984207D0164B984204D04FF610
:103CF000FF431A40CB881A4302808B8883850B8848
:103D000003850A4B98420BD0094B984208D00E4BC2
:103D1000984205D00D4B984202D00D4B984201D1EC
:103D20000B7A03860123838270470000002C014038
:103D3000003401400004004000080040000C004036
:103D400000100040001400400040014000440140C9
:103D50000048014070B505460C46224629461348E6
:103D60000068801CFCF759FC2046E11704EB116148
:103D7000090A0E4A12681170E11704EB1161091269
:103D8000A4EB0121094A126851700848006800F547
:103D90009670064908600846006805490968884227
:103DA00002D104480149086070BD00003C000020B9
:103DB000440000207C0F002010B540F22551184827
:103DC00000F09CF858B31748007880B91448001DDB
:103DD000008820B31248001D00881349134A126856
:103DE000885412480068401C1049086017E00C48CD
:103DF000001D00880C490D4A126888540B48006861
:103E000020B901210A48FFF736FE03E000210848E7
:103E1000FFF74CFF05480068401C0449086010BDCE
:103E20000044004071000020A00100202800002074
:103E30000008004001F40072B2F5007F00D100BF1D
:103E4000CA430280704721B1828942F400528281C4
:103E500004E082894DF6FF731A40828170470000AA
:103E600010B504462048844209D101218803FFF798
:103E7000B3F900214FF48040FFF7AEF932E01B4860
:103E8000844209D101214804FFF786F900214FF44B
:103E90000030FFF781F925E01548844209D101215E
:103EA0008804FFF779F900214FF48020FFF774F9B7
:103EB00018E01048844209D10121C804FFF76CF9C9
:103EC00000214FF40020FFF767F90BE00A48844215
:103ED00008D101210805FFF75FF900214FF4801098
:103EE000FFF75AF910BD00000038014000440040BF
:103EF00000480040004C00400050004070B50246B1
:103F0000002400230025002040F66A16B14200D1AB
:103F100000BFC1F3421501F01F03012606FA03F3A7
:103F2000012D02D19689334006E0022D02D1168A76
:103F3000334001E0968A33400C12012606FA04F45D
:103F40001688344013B10CB1012000E0002070BD90
:103F5000F0B50346002400260025002040F66A172D
:103F6000B94200D100BF1846C1F3421401F01F0648
:103F7000012707FA06F5012C01D10C3004E0022CD0
:103F800001D1103000E014301AB107682F430760E8
:103F900002E00768AF430760F0BD00002DE9F0477D
:103FA00086B005460E460024A24600BFA146002763
:103FB000B08900B100BF2F462C8A4CF6FF70044038
:103FC000F08804432C82AC894EF6F3100440B0888C
:103FD00031890843718908430443AC81AC8A4FF6A8
:103FE000FF400440B0890443AC8201A8FFF704F904
:103FF0001F48874202D1DDF810A001E0DDF80CA0D7
:10400000A88900F4004040B10AEBCA0000EB0A1096
:1040100031684900B0FBF1F807E00AEBCA0000EB99
:104020000A1031688900B0FBF1F86420B8FBF0F0A9
:1040300004012009642101FB1089A88900F40040D3
:1040400040B1322000EBC900B0FBF1F000F00700F6
:10405000044308E0322000EB09106421B0FBF1F0CA
:1040600000F00F0004432C8106B0BDE8F08700008B
:10407000003801407047000010B586B004460121A9
:104080008803FFF799F801210420FFF795F84FF412
:104090000070ADF8140003208DF8160018208DF87C
:1040A000170005A91248FDF78DFF4FF48060ADF8A9
:1040B000140004208DF8170005A90D48FDF782FFB4
:1040C00001940020ADF80800ADF80A00ADF80C002E
:1040D000ADF810000820ADF80E0001A90548FFF763
:1040E0005DFF01210348FFF7AEFE06B010BD0000E2
:1040F000000801400038014010B586B004464FF476
:10410000A060FEF7A7FC01214804FFF735F8012164
:104110000420FFF751F82448FFF7A2FE0420ADF871
:10412000140003208DF8160018208DF8170005A93B
:104130001E48FDF747FF0820ADF8140004208DF855
:10414000170005A91948FDF73DFF01940020ADF8BF
:104150000800ADF80A00ADF80C00ADF810000C2016
:10416000ADF80E0001A91048FFF718FF20210E48F6
:10417000FFF760FE012240F225510B48FFF7E8FEF1
:1041800026208DF8000000208DF801008DF8020037
:1041900001208DF803006846FEF724FC0121024847
:1041A000FFF751FE06B010BD00440040000801407A
:1041B00010B53BA000F06CFE322000F071FA20B187
:1041C0003BA000F065FE012010BD3FA000F060FEA6
:1041D00040A000F05DFE322143A000F0B3FA20B110
:1041E00044A000F055FE0220EEE749A000F050FE8A
:1041F0004C480078002822D14BA000F049FE322123
:104200004EA000F09FFA20B150A000F041FE032024
:10421000DAE756A000F03CFE59A000F039FEFEF7A8
:1042200023FCFEF7C1FD1E2000F0E8F920B159A0E3
:1042300000F02EFE0420C7E75DA000F029FE61A07B
:1042400000F026FE322163A000F07CFA20B165A0C8
:1042500000F01EFE0820B7E769A000F019FE6CA070
:1042600000F016FE32216FA000F06CFA20B170A0B1
:1042700000F00EFE0920A7E775A000F009FE79A066
:1042800000F006FE642000F00FF920B17AA000F0E3
:10429000FFFD0A2098E77FA000F0FAFD002093E7D9
:1042A000D7BCB1B8B8B4CEBBC4A3BFE90D0A0000F7
:1042B000B8B4CEBBCAA7B0DCA3ACD7BCB1B8D6D813
:1042C000C6F40D0A00000000B8B4CEBBB3C9B9A64D
:1042D0000D0A0000D7BCB1B8C9E8D6C3535441C4D5
:1042E000A3CABD0D0A00000041542B43574D4F4453
:1042F000453D3100C9E8D6C3535441C4A3CABDCA21
:10430000A7B0DCA3ACD7BCB1B8D6D8C6F40D0A00B0
:10431000C9E8D6C3535441C4A3CABDB3C9B9A60D95
:104320000A0000002C000020D7BCB1B8C8A1CFFB08
:10433000D7D4B6AFC1ACBDD30D0A000041542B4356
:10434000574155544F434F4E4E3D3000C8A1CFFB0F
:10435000D7D4B6AFC1ACBDD3CAA7B0DCA3ACD7BC71
:10436000B1B8D6D8C6F40D0A00000000C8A1CFFB32
:10437000D7D4B6AFC1ACBDD3B3C9B9A60D0A00003E
:10438000D7BCB1B8C1ACBDD3C2B7D3C9C6F70D0A4B
:1043900000000000C1ACBDD3C2B7D3C9C6F7CAA7DD
:1043A000B0DCA3ACD7BCB1B8D6D8C6F40D0A0000B7
:1043B000C1ACBDD3C2B7D3C9C6F7B3C9B9A60D0A3C
:1043C00000000000D7BCB1B8C9E8D6C3CDB8B4ABC3
:1043D0000D0A000041542B4349504D4F44453D3197
:1043E00000000000C9E8D6C3CDB8B4ABCAA7B0DCA2
:1043F000A3ACD7BCB1B8D6D8C6F40D0A00000000F3
:10440000C9E8D6C3CDB8B4ABB3C9B9A60D0A00008C
:10441000D7BCB1B8B9D8B1D5B6E0C2B7C1ACBDD37D
:104420000D0A000041542B4349504D55583D300072
:10443000B9D8B1D5B6E0C2B7C1ACBDD3CAA7B0DC5C
:10444000A3ACD7BCB1B8D6D8C6F40D0A00000000A2
:10445000B9D8B1D5B6E0C2B7C1ACBDD3B3C9B9A65E
:104460000D0A0000D7BCB1B8C1ACBDD3B7FECEF1C8
:10447000C6F70D0A00000000C1ACBDD3B7FECEF1F7
:10448000C6F7CAA7B0DCA3ACD7BCB1B8D6D8C6F4BF
:104490000D0A0000C1ACBDD3B7FECEF1C6F7B3C95B
:1044A000B9A60D0A0000000010B5044600202E49F0
:1044B00008604FF480612D48FCF7F4F82C482D4932
:1044C00002682DA000F032FD1AE06420FDF70CFD1B
:1044D00030A12648FCF744F800B115E02FA123488D
:1044E000FCF73EF808B1012010BD2EA11F48FCF7D3
:1044F00037F808B10220F7E721462FA000F0C8FCEA
:104500002000A4F10104E0D100BF2CA000F0C0FC09
:10451000002C01DC0320E7E729A000F0B9FC002013
:10452000114908604FF480611048FCF7BBF82CA0DB
:1045300000F0FCFC0CE06420FDF7D6FC2CA10B483D
:10454000FCF70EF800B107E021461BA000F0A0FC2C
:104550002000A4F10104EED100BF002C01DC0420F6
:10456000C2E70020C0E7000028000020A0010020D2
:1045700060000020B41C002041542B434950535488
:104580004152543D22544350222C222573222C2583
:10459000640D0A00434F4E4E45435400434C4F5365
:1045A00045440000414C524541445920434F4E4E32
:1045B0004543544544000000256420000D0A0000D6
:1045C000C1ACBDD3B7FECEF1C6F7B3C9B9A6A3AC93
:1045D000D7BCB1B8BDF8C8EBCDB8B4AB0D0A00007C
:1045E00041542B43495053454E440D0A00000000EE
:1045F0000D0A4F4B0D0A0D0A3E00000010B504468F
:104600000020164908604FF480611548FCF74AF80D
:1046100014A217A118A000F089FC0DE04FF47A70E5
:10462000FDF762FC1AA10E48FBF79AFF00B107E004
:10463000214618A000F02CFC2000A4F10104EDD1CB
:1046400000BF074914A000F023FC14A000F020FCD8
:10465000002C01DC012010BD0020FCE72800002018
:10466000A00100203236363731383035323900007B
:104670006E6F76612035690041542B43574A415093
:104680003D222573222C222573220D0A00000000F2
:104690004F4B0000256420000D0A25730D0A000011
:1046A00010B50446002210211348FDF723FD4FF4F6
:1046B000FA70FDF719FC012210210F48FDF71AFDD1
:1046C0000CE06420FDF710FC0CA10E48FBF748FF3E
:1046D00000B107E021460CA000F0DAFB2000A4F1B5
:1046E0000104EED100BF09A000F0D2FB002C01DCD8
:1046F000012010BD0020FCE70008014072656164E4
:1047000079000000A0010020256420000D0A0000AF
:1047100008B501210420FEF74FFD1020ADF8000080
:1047200003208DF8020010208DF80300694604482C
:10473000FDF748FC012210210148FDF7DBFC08BD14
:104740000008014070B505460C460020134908607A
:104750004FF480611248FBF7A5FF294611A000F035
:10476000E5FB0CE06420FDF7BFFB10A10C48FBF754
:10477000F7FE00B107E021460DA000F089FB200004
:10478000A4F10104EED100BF0AA000F081FB002CCF
:1047900001DC012070BD0020FCE7000028000020A3
:1047A000A001002025730D0A000000004F4B0000FF
:1047B000256420000D0A0000490050EAC12018BFFE
:1047C00004204A0D18BF40F0010040F2FF72B2EB26
:1047D000515F08BF40F00200012808BF0520704764
:1047E00030380A2801D2012070470020704700BFEE
:1047F0007047000008B501210820FEF7DDFC1020FD
:104800008DF803000002ADF8000003208DF80200CF
:1048100069460248FDF7D6FB08BD0000000C0140C8
:1048200010B54FF480510248FDF762FC10BD000046
:10483000000C014010B54FF480510248FDF756FCC2
:1048400010BD0000000C0140FDF79AFB4FF416501C
:10485000FFF712FC4FF4E130FFF74EFC4FF4E1514B
:104860004FF4FA70FFF7CCF8FDF790FDFDF7B8FABA
:10487000FDF7E6F9FFF7BEFFFDF7B2FDFEF702FA1E
:104880000020FEF79FF90020FEF7AAF9FFF740FF8E
:10489000FDF7E8FCBBE1DE480078012871D1DD4876
:1048A0000068DD49096888424CD0DA4800688078A1
:1048B00010280CD0D74800688078822803D1D748C8
:1048C0000078012803D0D648007801283AD1FEF7B5
:1048D00009FD04460CB9FEF78FFDFEF7F7FC40B961
:1048E000FEF738FD4FF47A70FDF7FEFACDA000F028
:1048F000CFFAC84800688078302809D1C5480068D8
:104900008178CAA000F0C4FAD2A000F0C1FA05E094
:10491000C04800688178D0A000F0BAFABD480068AD
:1049200000F0E4FABB48006800F59670B9490860E9
:1049300008460068CC490968884202D1CB48B5498D
:10494000086000BFCA480068CA490968884277D031
:10495000C9A000F09DFAC6480068807820283CD1A4
:10496000C3480068407906282FD2DFE800F0030B27
:1049700012192027C3A000F08BFA0120A749087064
:104980002AE01EE1C4A000F083FA0020A0490870CC
:1049900022E0CCA000F07CFA00209D4908701BE0CA
:1049A000D4A000F075FA00209949087014E0DBA04B
:1049B00000F06EFA0020964908700DE0E2A000F0C9
:1049C00067FA00209249087006E0E7A000F060FA5C
:1049D00000208F49087000BF49E0A5480068807832
:1049E00090281DD1A2480068807910B101280FD10C
:1049F00000E000BFE5A000F04BFA012088490870F4
:104A00000020E5490870FEF73DFFFEF701FE06E0D5
:104A1000E2A000F03DFA00207D49087000BF26E0CA
:104A2000934800688078D02815D1E2A000F030FAD1
:104A3000D9480078012804D10020D749087016E031
:104A400024E0D5480078012811DD0020D249087003
:104A5000FEF718FF0BE0864800688078302806D102
:104A6000D8A000F015FA82480068FDF765FE80487E
:104A7000006800F596707E49086008460068D649CF
:104A80000968884202D1D54879490860D44800684D
:104A9000D449096888426FD0D1480168891CD2A0E6
:104AA00000F0F6F9D3480068FBF798FD044622466B
:104AB000D0480168CA480068801CFBF763FD40B914
:104AC000CDA000F0E5F9D0A0D1490860FDF780FC49
:104AD00067E0D0480068FBF781FD04462246CD48D8
:104AE0000168BF480068801CFBF74CFD40B9CAA0B4
:104AF00000F0CEF9CCA0C6490860FDF761FC50E09B
:104B0000CB480068FBF76AFD04462246C8480168A6
:104B1000B3480068801CFBF735FD28B90120C54962
:104B20000860FEF775FD3CE0C3480068FBF756FDE2
:104B300004462246C0480168A9480068801CFBF76B
:104B400021FD40B90020BB49086000214FF08040A2
:104B5000FEF791FF25E0B9480068FBF73FFD0446EA
:104B60002246B64801689E480068801CFBF70AFD93
:104B700018B9FFF755FE14E022E0B1480068FBF7D2
:104B80002DFD04462246AE48016895480068801C09
:104B9000FBF7F8FC10B9FFF74DFE02E0A9A000F00A
:104BA00077F98F48006800F596708D4908600846CF
:104BB0000068A7490968884229D1A6488849086041
:104BC00025E0A5A000F064F90021A848FEF753FFF6
:104BD0000021A748FEF74FFF0020A64908604FF4C8
:104BE0008061A548FBF75EFDFFF7E2FA78B9A3A064
:104BF00000F04EF901200649087000209D49086028
:104C00004FF480619C48FBF74DFDFDF731FC42E617
:104C100071000020400000203C00002072000020B5
:104C200073000020BDF8C8EB69660000B7A2CBCDC9
:104C3000CAFDBEDD3A30782578A3ACB5A5C6ACBBBD
:104C4000FACAFDBEDDCDC6CBCDD6C1B7FECEF1C60C
:104C5000F70D0A000D0A0000B7A2CBCDCAFDBEDDDC
:104C60003A307825780D0A00440000207C0F00209F
:104C70003400002030000020BDD3CAD5B5BDCAFD28
:104C8000BEDD3A00434F4E4E454354B1A8CEC4B3A7
:104C9000C9B9A60D0A000000C1ACBDD3D2D1BEDC9B
:104CA000BEF8A3ACB2BBD6A7B3D6B5C4D0ADD2E9DB
:104CB000B0E6B1BEA3ACD7BCB1B8D6D8C6F40D0A25
:104CC00000000000C1ACBDD3D2D1BEDCBEF8A3ACA5
:104CD000B2BBBACFB8F1B5C4BFCDBBA7B6CBB1EAB2
:104CE000CAB6B7FBA3ACD7BCB1B8D6D8C6F40D0AC8
:104CF00000000000C1ACBDD3D2D1BEDCBEF8A3AC75
:104D0000B7FECEF1B6CBB2BBBFC9D3C3A3ACD7BC41
:104D1000B1B8D6D8C6F40D0A00000000C1ACBDD3AE
:104D2000D2D1BEDCBEF8A3ACCEDED0A7B5C4D3C30F
:104D3000BBA7C3FBBBF2C3DCC2EBA3ACD7BCB1B80F
:104D4000D6D8C6F40D0A0000C1ACBDD3D2D1BEDCAA
:104D5000BEF8A3ACCEB4CADAC8A8A3ACD7BCB1B86D
:104D6000D6D8C6F40D0A0000C1ACBDD3D2D1BEDC8A
:104D7000BEF8A3ACCEB4D6AAD7B4CCACA3ACD7BC47
:104D8000B1B8D6D8C6F40D0A00000000B6A9D4C444
:104D9000B3C9B9A60D0A000070000020B6A9D4C49A
:104DA000CAA7B0DCA3ACD7BCB1B8D6D8C6F40D0A3C
:104DB0000000000050494E47B1A8CEC4BBD8B8B4DB
:104DC0000D0A0000B7FECEF1C6F7B5C8BCB630CDAF
:104DD000C6CBCD0D0A00000038000020A00900203D
:104DE0004C00002048000020C3FCC1EE3A25730DA2
:104DF0000A00000004000020CAD5B5BDB9D8B5C668
:104E0000C3FCC1EE0D0A000066616C736500000012
:104E10001800002000000020CAD5B5BDBFAAB5C645
:104E2000C3FCC1EE0D0A000074727565000000003D
:104E3000080000201C0000200C00002010000020B2
:104E400014000020CEB4D6AAD6B8C1EE0D0A0000D8
:104E50005000002058150020D0E8D2AAC1ACBDD324
:104E6000B7FECEF1C6F70D0A0000000000080040B2
:104E70000004004028000020A0010020BDA8C1A21D
:104E8000544350C1ACBDD3B3C9B9A60D0A0000004C
:104E90000FB438B505A800901248009A0499FBF7A2
:104EA0000DFA002000900F48FBF798FB054600BF65
:104EB0000D48008800F040000028F9D000240CE0E4
:104EC0000848005D0849091D088000BF06480088A1
:104ED00000F040000028F9D0641CAC42F0D338BC8C
:104EE0005DF814FBA00000200038014000BF0E4A0E
:104EF000128802F04002002AF9D001210CE04A1C7D
:104F0000825C094B1B1D1A8000BF074A128802F001
:104F10004002002AF9D0491C4378027803EB0222B0
:104F20008A42ECDA70470000004400400FB438B504
:104F300005A800901248009A0499FBF7BFF90020D9
:104F400000900F48FBF74AFB054600BF0D4800885C
:104F500000F040000028F9D000240CE00848005D73
:104F60000849091D088000BF0648008800F040007D
:104F70000028F9D0641CAC42F0D338BC5DF814FBB7
:104F8000A00500200044004010B500290AD0087890
:104F9000002807D005487844FCF76EF9002801D0B6
:104FA000002010BD0248784410BD00000E2900000A
:104FB0000629000010B500290AD00878002807D07B
:104FC00005487844FCF758F9002801D0002010BDAE
:104FD0000248784410BD0000FE280000F6280000BA
:104FE00010B591EA030F48BF83F0004300F1E6815A
:104FF000841A71EB030C05D2121943EB0C03001B4E
:1050000061EB0C01DFF824E14FEA1154A4EB135CCF
:105010001EEA430F18BF9EEA445F73D023EA0E03D3
:10502000DCF1200E21EA045143F4801332D322FA3A
:105030000CFE10EB0E0023FA0CFE41EB0E01CCF13E
:10504000200E03FA0EFE10EB0E0051F10001B1F537
:10505000801FCCF1200E32D201EB045112FA0EF275
:10506000BDE8104058BF7047401C38BF5FEA42029D
:1050700018BF7047002814BF20F0010041F1000163
:105080004FEA410313F5001F38BF7047A1F1C0413B
:1050900000F086B9012A43EB0302ACF1200CDCF1ED
:1050A0001F0E32BF4FF0000E23FA0CF310EB03007B
:1050B00041EB0451B4EB115FD0D0A1EB045101F5E9
:1050C000801149085FEA300001EB04510ED350F122
:1050D000000038BF12FA0EFE08D1BDE81040C9E743
:1050E000401C38BF5FEA4202CAD1C3E7BDE81040A6
:1050F0004FEA410313F5001F38BF7047A1F1C041CB
:1051000000F04EB99EEA445F08D011EA5E0FBDE898
:10511000104004BF01F0004100207047BDE810407E
:1051200070B500F0EFF800BF64FBBE3E0000E0FF8A
:105130004FEA1153A3F58063D3F11E03A8BFD3F147
:10514000200C08DB4FF0004242EAC12252EA5052E2
:1051500032FA03F0704709420BD4102BC4BF002071
:10516000704703F5787CBCF1FF3F05D04FF0FF306E
:1051700070474FF00000704770B500F0C3F800BFF3
:105180004992248000207047F0E7B0FA80F310FACB
:1051900003F10AD0C3F11D0303F580634FEA4150C8
:1051A0004FEA035202EBD12170474FF000007047E5
:1051B000DFF848C170B51CEA111E1EBF1CEA1315AA
:1051C0009EEA0C0F95EA0C0F00F06F8081EA030451
:1051D00023EA4C134EEAD47E21EA4C1141F48011AB
:1051E00043F48013AE44A1FB024CA0FB0365AEF177
:1051F0007F7E361955EB0C05A1FB034C4CF10003E7
:10520000A0FB021C16EB0C06654153F1000309429A
:1052100018BF46F0010613F4007F0BD14FEA0331AB
:105220004FEA0530340341EA155140EA16506FF059
:1052300003020AE04FEAC3214FEAC520F40241EA23
:10524000555140EA56506FF0020202EB2E4201EB3C
:10525000025585EACE710AD05FEA440C18BF24F0EB
:10526000004450F1000041F1000120EAD47040F206
:10527000FE7C624500D270BDA84214BF4FF080444E
:105280004FF04044002E08BF0024BEF1806FA8BF3D
:10529000A1F1C041BDE8704080F282804FF0000073
:1052A00001F1C04101F0004170479EEA0C0F0CEA89
:1052B000131518BF95EA0C0F06D04FF0000081EAD5
:1052C000030E0EF0004170BD00F01CF88900013E95
:1052D00000F007B800F009B84FEA430C5FEA5C5CE5
:1052E00008D081EA030100F05BB84FEA410C5FEAA5
:1052F0005C5CF6D14FF00000014970470000FF07E9
:105300000000F87F0EF1020E2EF0030E5EF8046B23
:10531000364205D4012A43EB030515F5001F12D8C8
:10532000012841EB010C1CF5001F0CD80ED14FEAEF
:10533000D17C15F5001F0CEB4C0C0CF1020C08BFD6
:105340004CEBD37C04E04FF0080C01E04FEAD37C37
:105350000CEB4C0526FA05F606F00706B6F1040C30
:1053600006D20EEB860CBDE870404CF0010C604795
:10537000DFE80CF0090B02024FF000414FF0000093
:10538000A1F5002170BD19461046012851EB01041A
:1053900018BFD4F5001484BF002001F0004170BD97
:1053A0000808A0F500114FEA3101704710B591EAE5
:1053B000030F48BF83F000433FF51AAE841A71EB28
:1053C000030C07D212198CF0004C43EB0C03001BAA
:1053D00061EB0C01DFF8A4E14FEA1154A4EB135C7C
:1053E0001EEA430F18BF9EEA445F00F0B08023EA34
:1053F0006E03524221EA0451C3EB6E0338BF5B1EB9
:10540000DCF1200E25D322FA0CFE10EB0E0043FA3D
:105410000CFE41EB0E01CCF1200E03FA0EFE10EB58
:105420000E0051F10001CCF1200E29D412FA0EF237
:1054300001EB0451BDE8104058BF7047401C1CBF31
:10544000B2F1004F704700280CBF491C20F001004A
:10545000704712EB020E43EB030218BF4FF0010E30
:105460004EEA4202ACF1200CDCF11E0E54D943FA94
:105470000CFE10EB0E0051F1FF31CCF11E0ED5D514
:105480000EF1010E12FA0EFE404141EB010101EB5B
:10549000445C5FEA5C5C10D910EBDE7001EB0451F8
:1054A00038BFBEF1004FBDE8104018BF704700285C
:1054B0000CBF491C20F00100704730D24FEAD42CB9
:1054C00011F5001124F400641BD0B1FA81F20B3AFB
:1054D000A41AA41ED2F12003914030FA03F3194319
:1054E000904001EBCC71002C01EB0451BDE8104061
:1054F000A8BF704701F1C0414FF0000001F000412A
:105500007047B0FA80F310FA03F100D110BDE41A2D
:10551000173C4805C90AE4E701EB045110BD4910E6
:1055200001EB0451BDE810404FEA300002E04FF0BB
:10553000000170474A0008BF0042F8D0B2F5001FD2
:1055400028BF704701F000414FF0000070479EEA0D
:10555000445F07D011EA5E0FBDE8104004BF002190
:1055600000207047BDE8104070B5FFF7CBFE00BFCC
:1055700040DFF63E83F00041104670470000E0FF38
:10558000FBF724BC0000000000000000002F00001A
:1055900000000700070000147F147F1400242A7FF6
:1055A0002A12006264081323003649552250000075
:1055B0000503000000001C224100000041221C00E5
:1055C0000014083E08140008083E0808000000A067
:1055D0006000000808080808000060600000002063
:1055E00010080402003E5149453E0000427F400041
:1055F000004261514946002141454B3100181412C7
:105600007F10002745454539003C4A494930000193
:105610007109050300364949493600064949291EE2
:105620000000363600000000563600000008142244
:105630004100001414141414000041221408000244
:105640000151090600324959513E007C1211127C69
:10565000007F49494936003E41414122007F414196
:10566000221C007F49494941007F09090901003E88
:105670004149497A007F0808087F0000417F4100C6
:10568000002040413F01007F08142241007F40403C
:105690004040007F020C027F007F0408107F003E24
:1056A0004141413E007F09090906003E4151215E0A
:1056B000007F091929460046494949310001017F07
:1056C0000101003F4040403F001F2040201F003F9D
:1056D0004038403F0063140814630007087008074F
:1056E00000615149454300007F41410000552A5562
:1056F0002A55000041417F000004020102040040DD
:1057000040404040000001020400002054545478FE
:10571000007F48444438003844444420003844441E
:10572000487F00385454541800087E0901020018BC
:10573000A4A4A47C007F080404780000447D4000F9
:10574000004080847D00007F102844000000417FDD
:105750004000007C04180478007C080404780038B9
:105760004444443800FC242424180018242418FC41
:10577000007C0804040800485454542000043F44AA
:105780004020003C4040207C001C2040201C003C6D
:105790004030403C004428102844001CA0A0A07CBD
:1057A000004464544C4414141414141400000000F5
:1057B00000000000000000000000FC0000000000ED
:1057C00002000000000C020C0200000000000000BB
:1057D00090D0BCD0BC900003000300001824FE440D
:1057E0008C000302070201001824D8B04C8000038B
:1057F00000010201C038E438E000010202010202A7
:10580000080600000000000000000000000000F892
:105810000402000000010204000204F80000000479
:10582000020100009060F86090000000010000009C
:105830002020FC20200000000100000000000000EB
:1058400000000806000000002020202020000000AA
:105850000000000000000000000000020000000046
:105860000080601C0200040300000000F80404042F
:10587000F8000102020201000008FC000000000222
:1058800003020000188444241800030202020200EC
:1058900008042424D80001020202010040B088FC60
:1058A00080000000000302003C242424C400010204
:1058B00002020100F824242CC000010202020100AF
:1058C0000C04E41C0400000003000000D82424247D
:1058D000D80001020202010038444444F8000003E9
:1058E00002020100000010000000000002000000A1
:1058F000000020000000000006000000002050888A
:1059000004020000000001029090909090000000BE
:105910000000000000020488502000020100000086
:105920001804C4241800000002000000F804E494E5
:10593000F80001020202020000E09CF08000020375
:105940000000030204FC2424D80002030202010028
:10595000F80404040C0001020202010004FC040427
:10596000F80002030202010004FC24740C0002038C
:105970000202030004FC24740C0002030200000075
:10598000F0080444CC4000010202010004FC202085
:10599000FC040203000003020404FC0404000202ED
:1059A00003020200000404FC0404060404030000D3
:1059B00004FC24D00C0402030200030204FC0400D3
:1059C0000000020302020203FC3CC03CFC00030096
:1059D0000300030004FC30C4FC04020302000300C3
:1059E000F8040404F80001020202010004FC24246B
:1059F0001800020302000000F8848404F800010289
:105A00000207050004FC246498000203020003025C
:105A1000182424448C000302020201000C04FC043C
:105A20000C0000020302000004FC0000FC04000162
:105A300002020100047C80E01C040000030000005E
:105A40001CE03CE01C00000300030000049C609C80
:105A50000400020300030200041CE01C0400000216
:105A6000030200000C84641C040002030202030011
:105A70000000FE020200000007040400000E30C017
:105A80000000000000010200000202FE000000040D
:105A900004070000000402040000000000000000F1
:105AA00000000000000008080808080800000200C4
:105AB00000000000000000000040A0A0C0000001A5
:105AC0000202030204FC2020C000000302020100C5
:105AD00000C02020600000010202020000C020245B
